{
  "_format": "hh-sol-artifact-1",
  "contractName": "VotingManager",
  "sourceName": "contracts/VotingManager.sol",
  "abi": [
    {
      "inputs": [],
      "stateMutability": "nonpayable",
      "type": "constructor"
    },
    {
      "inputs": [],
      "name": "InvalidInitialization",
      "type": "error"
    },
    {
      "inputs": [],
      "name": "NotInitializing",
      "type": "error"
    },
    {
      "inputs": [
        {
          "internalType": "address",
          "name": "owner",
          "type": "address"
        }
      ],
      "name": "OwnableInvalidOwner",
      "type": "error"
    },
    {
      "inputs": [
        {
          "internalType": "address",
          "name": "account",
          "type": "address"
        }
      ],
      "name": "OwnableUnauthorizedAccount",
      "type": "error"
    },
    {
      "anonymous": false,
      "inputs": [
        {
          "indexed": false,
          "internalType": "uint64",
          "name": "version",
          "type": "uint64"
        }
      ],
      "name": "Initialized",
      "type": "event"
    },
    {
      "anonymous": false,
      "inputs": [
        {
          "indexed": true,
          "internalType": "address",
          "name": "previousOwner",
          "type": "address"
        },
        {
          "indexed": true,
          "internalType": "address",
          "name": "newOwner",
          "type": "address"
        }
      ],
      "name": "OwnershipTransferred",
      "type": "event"
    },
    {
      "anonymous": false,
      "inputs": [
        {
          "indexed": false,
          "internalType": "uint256",
          "name": "votingProposalId",
          "type": "uint256"
        },
        {
          "indexed": false,
          "internalType": "enum VotingManager.VoteOption",
          "name": "voteOption",
          "type": "uint8"
        },
        {
          "indexed": false,
          "internalType": "uint256",
          "name": "voteCount",
          "type": "uint256"
        }
      ],
      "name": "VoteCasted",
      "type": "event"
    },
    {
      "anonymous": false,
      "inputs": [
        {
          "indexed": false,
          "internalType": "uint256",
          "name": "votingProposalId",
          "type": "uint256"
        },
        {
          "indexed": false,
          "internalType": "uint256",
          "name": "yesVotes",
          "type": "uint256"
        },
        {
          "indexed": false,
          "internalType": "uint256",
          "name": "noVotes",
          "type": "uint256"
        }
      ],
      "name": "VotingConcluded",
      "type": "event"
    },
    {
      "anonymous": false,
      "inputs": [
        {
          "indexed": false,
          "internalType": "uint256",
          "name": "votingProposalId",
          "type": "uint256"
        },
        {
          "indexed": false,
          "internalType": "address",
          "name": "creator",
          "type": "address"
        },
        {
          "indexed": false,
          "internalType": "bytes32",
          "name": "proposalHash",
          "type": "bytes32"
        },
        {
          "indexed": false,
          "internalType": "uint256",
          "name": "creationDate",
          "type": "uint256"
        },
        {
          "indexed": false,
          "internalType": "uint256",
          "name": "conclusionDate",
          "type": "uint256"
        }
      ],
      "name": "VotingProposalCreated",
      "type": "event"
    },
    {
      "inputs": [
        {
          "internalType": "uint256",
          "name": "votingProposalId",
          "type": "uint256"
        },
        {
          "internalType": "enum VotingManager.VoteOption",
          "name": "voteOption",
          "type": "uint8"
        }
      ],
      "name": "castVote",
      "outputs": [],
      "stateMutability": "nonpayable",
      "type": "function"
    },
    {
      "inputs": [
        {
          "internalType": "uint256",
          "name": "votingProposalId",
          "type": "uint256"
        }
      ],
      "name": "concludeVoting",
      "outputs": [],
      "stateMutability": "nonpayable",
      "type": "function"
    },
    {
      "inputs": [
        {
          "internalType": "bytes32",
          "name": "proposalHash",
          "type": "bytes32"
        },
        {
          "internalType": "uint256",
          "name": "endDate",
          "type": "uint256"
        }
      ],
      "name": "createVotingProposal",
      "outputs": [],
      "stateMutability": "nonpayable",
      "type": "function"
    },
    {
      "inputs": [
        {
          "internalType": "uint256",
          "name": "id",
          "type": "uint256"
        }
      ],
      "name": "getProposal",
      "outputs": [
        {
          "components": [
            {
              "internalType": "uint256",
              "name": "votingProposalId",
              "type": "uint256"
            },
            {
              "internalType": "uint256",
              "name": "totalVotes",
              "type": "uint256"
            },
            {
              "internalType": "address",
              "name": "creator",
              "type": "address"
            },
            {
              "internalType": "bytes32",
              "name": "proposalHash",
              "type": "bytes32"
            },
            {
              "internalType": "uint256",
              "name": "creationDate",
              "type": "uint256"
            },
            {
              "internalType": "uint256",
              "name": "conclusionDate",
              "type": "uint256"
            },
            {
              "internalType": "bool",
              "name": "concluded",
              "type": "bool"
            }
          ],
          "internalType": "struct VotingManager.VotingProposal",
          "name": "",
          "type": "tuple"
        }
      ],
      "stateMutability": "view",
      "type": "function"
    },
    {
      "inputs": [
        {
          "internalType": "uint256",
          "name": "id",
          "type": "uint256"
        }
      ],
      "name": "getVotes",
      "outputs": [
        {
          "internalType": "uint256",
          "name": "",
          "type": "uint256"
        },
        {
          "internalType": "uint256",
          "name": "",
          "type": "uint256"
        }
      ],
      "stateMutability": "view",
      "type": "function"
    },
    {
      "inputs": [
        {
          "internalType": "uint256",
          "name": "",
          "type": "uint256"
        },
        {
          "internalType": "address",
          "name": "",
          "type": "address"
        }
      ],
      "name": "hasVoted",
      "outputs": [
        {
          "internalType": "bool",
          "name": "",
          "type": "bool"
        }
      ],
      "stateMutability": "view",
      "type": "function"
    },
    {
      "inputs": [],
      "name": "initialize",
      "outputs": [],
      "stateMutability": "nonpayable",
      "type": "function"
    },
    {
      "inputs": [],
      "name": "nextVotingProposalId",
      "outputs": [
        {
          "internalType": "uint256",
          "name": "",
          "type": "uint256"
        }
      ],
      "stateMutability": "view",
      "type": "function"
    },
    {
      "inputs": [],
      "name": "owner",
      "outputs": [
        {
          "internalType": "address",
          "name": "",
          "type": "address"
        }
      ],
      "stateMutability": "view",
      "type": "function"
    },
    {
      "inputs": [],
      "name": "renounceOwnership",
      "outputs": [],
      "stateMutability": "nonpayable",
      "type": "function"
    },
    {
      "inputs": [
        {
          "internalType": "address",
          "name": "newOwner",
          "type": "address"
        }
      ],
      "name": "transferOwnership",
      "outputs": [],
      "stateMutability": "nonpayable",
      "type": "function"
    },
    {
      "inputs": [
        {
          "internalType": "uint256",
          "name": "",
          "type": "uint256"
        },
        {
          "internalType": "enum VotingManager.VoteOption",
          "name": "",
          "type": "uint8"
        }
      ],
      "name": "voteCounts",
      "outputs": [
        {
          "internalType": "uint256",
          "name": "",
          "type": "uint256"
        }
      ],
      "stateMutability": "view",
      "type": "function"
    },
    {
      "inputs": [
        {
          "internalType": "uint256",
          "name": "",
          "type": "uint256"
        }
      ],
      "name": "votingProposals",
      "outputs": [
        {
          "internalType": "uint256",
          "name": "votingProposalId",
          "type": "uint256"
        },
        {
          "internalType": "uint256",
          "name": "totalVotes",
          "type": "uint256"
        },
        {
          "internalType": "address",
          "name": "creator",
          "type": "address"
        },
        {
          "internalType": "bytes32",
          "name": "proposalHash",
          "type": "bytes32"
        },
        {
          "internalType": "uint256",
          "name": "creationDate",
          "type": "uint256"
        },
        {
          "internalType": "uint256",
          "name": "conclusionDate",
          "type": "uint256"
        },
        {
          "internalType": "bool",
          "name": "concluded",
          "type": "bool"
        }
      ],
      "stateMutability": "view",
      "type": "function"
    }
  ],
  "bytecode": "0x60806040523480156200001157600080fd5b50620000226200002860201b60201c565b6200019c565b60006200003a6200013260201b60201c565b90508060000160089054906101000a900460ff161562000086576040517ff92ee8a900000000000000000000000000000000000000000000000000000000815260040160405180910390fd5b67ffffffffffffffff80168160000160009054906101000a900467ffffffffffffffff1667ffffffffffffffff16146200012f5767ffffffffffffffff8160000160006101000a81548167ffffffffffffffff021916908367ffffffffffffffff1602179055507fc7f505b2f371ae2175ee4913f4499e1f2633a7b5936321eed1cdaeb6115181d267ffffffffffffffff6040516200012691906200017f565b60405180910390a15b50565b60007ff0c57e16840df040f15088dc2f81fe391c3923bec73e23a9662efc9c229c6a00905090565b600067ffffffffffffffff82169050919050565b62000179816200015a565b82525050565b60006020820190506200019660008301846200016e565b92915050565b6117c980620001ac6000396000f3fe608060405234801561001057600080fd5b50600436106100cf5760003560e01c80638129fc1c1161008c578063c7f758a811610066578063c7f758a8146101de578063c83a09c01461020e578063f2fde38b1461023e578063ff9810991461025a576100cf565b80638129fc1c146101805780638da5cb5b1461018a578063ad85de7a146101a8576100cf565b8063345f342e146100d457806343859632146100f057806356781388146101205780636d40d1f21461013c578063715018a61461015a5780637ba014a014610164575b600080fd5b6100ee60048036038101906100e99190610fb4565b61028b565b005b61010a6004803603810190610105919061103f565b610469565b604051610117919061109a565b60405180910390f35b61013a600480360381019061013591906110da565b610498565b005b610144610691565b6040516101519190611129565b60405180910390f35b610162610697565b005b61017e6004803603810190610179919061117a565b6106ab565b005b6101886107b4565b005b610192610949565b60405161019f91906111c9565b60405180910390f35b6101c260048036038101906101bd9190610fb4565b610981565b6040516101d597969594939291906111f3565b60405180910390f35b6101f860048036038101906101f39190610fb4565b6109f0565b604051610205919061132c565b60405180910390f35b610228600480360381019061022391906110da565b610ac0565b6040516102359190611129565b60405180910390f35b61025860048036038101906102539190611347565b610ae5565b005b610274600480360381019061026f9190610fb4565b610b6b565b604051610282929190611374565b60405180910390f35b600160008281526020019081526020016000206005015442116102e3576040517f08c379a00000000000000000000000000000000000000000000000000000000081526004016102da906113fa565b60405180910390fd5b6001600082815260200190815260200160002060020160009054906101000a900473ffffffffffffffffffffffffffffffffffffffff1673ffffffffffffffffffffffffffffffffffffffff163373ffffffffffffffffffffffffffffffffffffffff1614610387576040517f08c379a000000000000000000000000000000000000000000000000000000000815260040161037e9061148c565b60405180910390fd5b6001600082815260200190815260200160002060060160009054906101000a900460ff16156103eb576040517f08c379a00000000000000000000000000000000000000000000000000000000081526004016103e2906114f8565b60405180910390fd5b600180600083815260200190815260200160002060060160006101000a81548160ff02191690831515021790555060008061042583610b6b565b915091507f184111d8f04bb3996afef69d4e3797d4ae19e2eba118797d050850425885075383838360405161045c93929190611518565b60405180910390a1505050565b60036020528160005260406000206020528060005260406000206000915091509054906101000a900460ff1681565b6001600083815260200190815260200160002060060160009054906101000a900460ff16156104fc576040517f08c379a00000000000000000000000000000000000000000000000000000000081526004016104f3906114f8565b60405180910390fd5b6105068233610c09565b15610546576040517f08c379a000000000000000000000000000000000000000000000000000000000815260040161053d9061159b565b60405180910390fd5b60016003600084815260200190815260200160002060003373ffffffffffffffffffffffffffffffffffffffff1673ffffffffffffffffffffffffffffffffffffffff16815260200190815260200160002060006101000a81548160ff021916908315150217905550600180600084815260200190815260200160002060010160008282546105d591906115ea565b9250508190555060016002600084815260200190815260200160002060008360018111156106065761060561161e565b5b60018111156106185761061761161e565b5b8152602001908152602001600020600082825461063591906115ea565b925050819055507ff2e8b22399151373355f1aea3da02a8f7ddf3d75811ca3db851c37a2a3014daf8282600160008681526020019081526020016000206001015460405161068593929190611695565b60405180910390a15050565b60005481565b61069f610c71565b6106a96000610cf8565b565b6000805490506000600160008381526020019081526020016000209050818160000181905550338160020160006101000a81548173ffffffffffffffffffffffffffffffffffffffff021916908373ffffffffffffffffffffffffffffffffffffffff1602179055506000816001018190555083816003018190555042816004018190555082816005018190555060008160060160006101000a81548160ff0219169083151502179055507f4e2765b31d234ed30c7231fb4fd3c3c12db46bdb7dd6d133ed373165a2ad6600823386428760405161078d9594939291906116cc565b60405180910390a160016000808282546107a791906115ea565b9250508190555050505050565b60006107be610dcf565b905060008160000160089054906101000a900460ff1615905060008260000160009054906101000a900467ffffffffffffffff1690506000808267ffffffffffffffff1614801561080c5750825b9050600060018367ffffffffffffffff16148015610841575060003073ffffffffffffffffffffffffffffffffffffffff163b145b90508115801561084f575080155b15610886576040517ff92ee8a900000000000000000000000000000000000000000000000000000000815260040160405180910390fd5b60018560000160006101000a81548167ffffffffffffffff021916908367ffffffffffffffff16021790555083156108d65760018560000160086101000a81548160ff0219169083151502179055505b6108df33610df7565b6000808190555083156109425760008560000160086101000a81548160ff0219169083151502179055507fc7f505b2f371ae2175ee4913f4499e1f2633a7b5936321eed1cdaeb6115181d260016040516109399190611778565b60405180910390a15b5050505050565b600080610954610e0b565b90508060000160009054906101000a900473ffffffffffffffffffffffffffffffffffffffff1691505090565b60016020528060005260406000206000915090508060000154908060010154908060020160009054906101000a900473ffffffffffffffffffffffffffffffffffffffff16908060030154908060040154908060050154908060060160009054906101000a900460ff16905087565b6109f8610f21565b600160008381526020019081526020016000206040518060e001604052908160008201548152602001600182015481526020016002820160009054906101000a900473ffffffffffffffffffffffffffffffffffffffff1673ffffffffffffffffffffffffffffffffffffffff1673ffffffffffffffffffffffffffffffffffffffff1681526020016003820154815260200160048201548152602001600582015481526020016006820160009054906101000a900460ff1615151515815250509050919050565b6002602052816000526040600020602052806000526040600020600091509150505481565b610aed610c71565b600073ffffffffffffffffffffffffffffffffffffffff168173ffffffffffffffffffffffffffffffffffffffff1603610b5f5760006040517f1e4fbdf7000000000000000000000000000000000000000000000000000000008152600401610b5691906111c9565b60405180910390fd5b610b6881610cf8565b50565b600080600260008481526020019081526020016000206000806001811115610b9657610b9561161e565b5b6001811115610ba857610ba761161e565b5b815260200190815260200160002054600260008581526020019081526020016000206000600180811115610bdf57610bde61161e565b5b6001811115610bf157610bf061161e565b5b81526020019081526020016000205491509150915091565b60006003600084815260200190815260200160002060008373ffffffffffffffffffffffffffffffffffffffff1673ffffffffffffffffffffffffffffffffffffffff16815260200190815260200160002060009054906101000a900460ff16905092915050565b610c79610e33565b73ffffffffffffffffffffffffffffffffffffffff16610c97610949565b73ffffffffffffffffffffffffffffffffffffffff1614610cf657610cba610e33565b6040517f118cdaa7000000000000000000000000000000000000000000000000000000008152600401610ced91906111c9565b60405180910390fd5b565b6000610d02610e0b565b905060008160000160009054906101000a900473ffffffffffffffffffffffffffffffffffffffff169050828260000160006101000a81548173ffffffffffffffffffffffffffffffffffffffff021916908373ffffffffffffffffffffffffffffffffffffffff1602179055508273ffffffffffffffffffffffffffffffffffffffff168173ffffffffffffffffffffffffffffffffffffffff167f8be0079c531659141344cd1fd0a4f28419497f9722a3daafe3b4186f6b6457e060405160405180910390a3505050565b60007ff0c57e16840df040f15088dc2f81fe391c3923bec73e23a9662efc9c229c6a00905090565b610dff610e3b565b610e0881610e7b565b50565b60007f9016d09d72d40fdae2fd8ceac6b6234c7706214fd39c1cd1e609a0528c199300905090565b600033905090565b610e43610f01565b610e79576040517fd7e6bcf800000000000000000000000000000000000000000000000000000000815260040160405180910390fd5b565b610e83610e3b565b600073ffffffffffffffffffffffffffffffffffffffff168173ffffffffffffffffffffffffffffffffffffffff1603610ef55760006040517f1e4fbdf7000000000000000000000000000000000000000000000000000000008152600401610eec91906111c9565b60405180910390fd5b610efe81610cf8565b50565b6000610f0b610dcf565b60000160089054906101000a900460ff16905090565b6040518060e001604052806000815260200160008152602001600073ffffffffffffffffffffffffffffffffffffffff1681526020016000801916815260200160008152602001600081526020016000151581525090565b600080fd5b6000819050919050565b610f9181610f7e565b8114610f9c57600080fd5b50565b600081359050610fae81610f88565b92915050565b600060208284031215610fca57610fc9610f79565b5b6000610fd884828501610f9f565b91505092915050565b600073ffffffffffffffffffffffffffffffffffffffff82169050919050565b600061100c82610fe1565b9050919050565b61101c81611001565b811461102757600080fd5b50565b60008135905061103981611013565b92915050565b6000806040838503121561105657611055610f79565b5b600061106485828601610f9f565b92505060206110758582860161102a565b9150509250929050565b60008115159050919050565b6110948161107f565b82525050565b60006020820190506110af600083018461108b565b92915050565b600281106110c257600080fd5b50565b6000813590506110d4816110b5565b92915050565b600080604083850312156110f1576110f0610f79565b5b60006110ff85828601610f9f565b9250506020611110858286016110c5565b9150509250929050565b61112381610f7e565b82525050565b600060208201905061113e600083018461111a565b92915050565b6000819050919050565b61115781611144565b811461116257600080fd5b50565b6000813590506111748161114e565b92915050565b6000806040838503121561119157611190610f79565b5b600061119f85828601611165565b92505060206111b085828601610f9f565b9150509250929050565b6111c381611001565b82525050565b60006020820190506111de60008301846111ba565b92915050565b6111ed81611144565b82525050565b600060e082019050611208600083018a61111a565b611215602083018961111a565b61122260408301886111ba565b61122f60608301876111e4565b61123c608083018661111a565b61124960a083018561111a565b61125660c083018461108b565b98975050505050505050565b61126b81610f7e565b82525050565b61127a81611001565b82525050565b61128981611144565b82525050565b6112988161107f565b82525050565b60e0820160008201516112b46000850182611262565b5060208201516112c76020850182611262565b5060408201516112da6040850182611271565b5060608201516112ed6060850182611280565b5060808201516113006080850182611262565b5060a082015161131360a0850182611262565b5060c082015161132660c085018261128f565b50505050565b600060e082019050611341600083018461129e565b92915050565b60006020828403121561135d5761135c610f79565b5b600061136b8482850161102a565b91505092915050565b6000604082019050611389600083018561111a565b611396602083018461111a565b9392505050565b600082825260208201905092915050565b7f566f74696e6720706572696f6420686173206e6f7420656e646564207965742e600082015250565b60006113e460208361139d565b91506113ef826113ae565b602082019050919050565b60006020820190508181036000830152611413816113d7565b9050919050565b7f4f6e6c79207468652063726561746f722063616e20636f6e636c75646520746860008201527f652070726f706f73616c2e000000000000000000000000000000000000000000602082015250565b6000611476602b8361139d565b91506114818261141a565b604082019050919050565b600060208201905081810360008301526114a581611469565b9050919050565b7f566f74696e672068617320616c726561647920636f6e636c756465642e000000600082015250565b60006114e2601d8361139d565b91506114ed826114ac565b602082019050919050565b60006020820190508181036000830152611511816114d5565b9050919050565b600060608201905061152d600083018661111a565b61153a602083018561111a565b611547604083018461111a565b949350505050565b7f596f75206861766520616c726561647920766f7465642e000000000000000000600082015250565b600061158560178361139d565b91506115908261154f565b602082019050919050565b600060208201905081810360008301526115b481611578565b9050919050565b7f4e487b7100000000000000000000000000000000000000000000000000000000600052601160045260246000fd5b60006115f582610f7e565b915061160083610f7e565b9250828201905080821115611618576116176115bb565b5b92915050565b7f4e487b7100000000000000000000000000000000000000000000000000000000600052602160045260246000fd5b6002811061165e5761165d61161e565b5b50565b600081905061166f8261164d565b919050565b600061167f82611661565b9050919050565b61168f81611674565b82525050565b60006060820190506116aa600083018661111a565b6116b76020830185611686565b6116c4604083018461111a565b949350505050565b600060a0820190506116e1600083018861111a565b6116ee60208301876111ba565b6116fb60408301866111e4565b611708606083018561111a565b611715608083018461111a565b9695505050505050565b6000819050919050565b600067ffffffffffffffff82169050919050565b6000819050919050565b600061176261175d6117588461171f565b61173d565b611729565b9050919050565b61177281611747565b82525050565b600060208201905061178d6000830184611769565b9291505056fea2646970667358221220f14544022e4663d02dbc834714f9aac30cfafbcaabdbbc977114596094c50f4f64736f6c63430008140033",
  "linkReferences": {},
  "deployedLinkReferences": {}
}